:10000000020BB5C192C19300D2AF22020E8EC0E0A6
:10001000E5AC30E00353ACFEE5AD30E00353ADFE9C
:10002000D0E032020D154391045392FB43914043BB
:100030009240786176030876E8A297921322C2ACC8
:10004000222E0002000EE5342428F8E6053422783A
:10005000253007027828E475F001120808020750DD
:100060002000EB7F2ED2008018EF540F2490D43460
:1000700040D4FF30040BEF24BFB41A0050032461B6
:10008000FFE535600215350538E538700205373073
:10009000070D7825E475F001120808EF0207F60253
:1000A00010A17403D2078003E4C207F5348B258ABC
:1000B000268927E4F535F537F538E53560077F20E3
:1000C00012008180F57536FFC201C200C202C20370
:1000D000C205C206C20812004FFF700D3007057F2F
:1000E00000120092AF38AE3722B4255FC2D5C204E9
:1000F00012004FFF24D0B40A00501A75F00A783568
:1001000030D50508B6FF0106C6A426F620D5047032
:1001100002D20380D924CFB41A00EF5004C2E5D232
:1001200004020292D20180C6D20080C0D20280BCFA
:10013000D2D580BAD20580B47F2012008120020778
:100140007401B5350040F1120046FF120081020033
:10015000BAD208D2068095120046FB120046FA1267
:100160000046F94A4B700679637A037BFF20022E22
:10017000E535602A7E008E8275830012076960066D
:100180000EEE653670F0C2D5EBC0E0EAC0E0E9C023
:10019000E0EE1202D9D0E0F9D0E0FAD0E0FB12078D
:1001A00050FF60AAEBC0E0EAC0E0E9C0E0120081C5
:1001B000D0E02401F9D0E03400FAD0E0FBE53604C9
:1001C00060DCD536D980877BFF7A0279D5D2028070
:1001D0009C791080027908C206C2088008D2D579BD
:1001E0000A8004790AC2D5E536047002F536E4FACD
:1001F000FDFEFF120046FC7B08200113120046FDA5
:100200007B1030000A120046FE120046FF7B20ECF5
:100210003382D592D55013C3E43000069FFFE49E8D
:10022000FEE42001039DFDE49CFCE4CBF8C201EC5C
:10023000700CCFCECDCCE824F8F870F38017C3EF64
:1002400033FFEE33FEED33FDEC33FCEB33FB994033
:1002500002FB0FD8E9EB300105F8D0E0C448B20149
:10026000C0E00AEC4D4E4F78207B0070C2EAB536F4
:100270000040BCC0E01202DBD0F0D0E0200104C49A
:10028000C0E0C4B201C0F012006AD0F0D5F0EB02B9
:1002900000BA1207CA01575301D15801284C012452
:1002A0004201D54F01DD4401DD49013D4301E355E4
:1002B00001C74601C74501C747038350012C2D01E3
:1002C000302E01532B013423015120036C2A00EC02
:1002D000480000014B3F3F3F00790AA2D52003149C
:1002E000300509B910020404B9080104A2D520069A
:1002F000025001042002689202B535005034C0E07B
:100300007F203003197F30A20272067205500F124F
:100310000332C202C206C205C2087F30800F300518
:1003200003E9C0E0120081300503D0E0F9D0E0B568
:1003300035CC3005177F30B9100C1200817F583052
:1003400004077F788003B908031200813002057F1B
:100350002D0200817F202008F87F2B2006F32292B7
:100360000280CF286E756C6C2900D20112004630D5
:1003700001F8C201783530D50108F60200EC2D50A5
:100380004349581200462403B405004001E4900399
:100390007E93120072743A120072D2037535040211
:1003A00001D18B238A2489258D26200B0302046D1D
:1003B000E5261207CA043E08040B0A040B0D03E0ED
:1003C00020062422040B23040B2A03E02C03E02E36
:1003D00003E02F03E03A040B3B040B400000045100
:1003E000C3E53C6480948A4003020624A20AB35009
:1003F0000B743F253CF8E4F6053C0539E526B420AE
:1004000005D20A020624C20A020624C3E53C64801F
:10041000948A5007743F253CF8E4F6E4F548C20B93
:10042000AB23AA24A925E53B2403FFE4353A8F82B8
:10043000F583120769FFE4F53AF53BD20922E53C62
:100440007003020624153C743F253CF8E4F60206CE
:1004500024C3E53C6480948A500B743F253CF8A685
:1004600026053C8003E4F548C20A0206243009054B
:10047000C209E4F53CAF261210B58F26AB23AA249F
:10048000A925E53B2401FFE4353A8F82F583120765
:1004900069FF3395E0FEE53E253BCDE53D353ACDA0
:1004A0002404CD3400CDC39FFFED9E8F82F58312CF
:1004B0000769F527B4400CE53E253BF53BE53D35A6
:1004C0003AF53AAB23AA24A925E53B2401FFE435FC
:1004D0003A8F82F583120769FF3395E0FEE53E25EA
:1004E0003BCDE53D353ACD2404CD3400CDC39FFF4F
:1004F000ED9E8F82F583120769F5276526705D05ED
:100500003EE53E7002053DAB23AA24A925E53B2428
:1005100001FFE4353A8F82F583120769FF3395E0D6
:10052000FEE53E253BCDE53D353ACD2404CD3400F6
:10053000CDC39FFFED9E8F82F583120769F5276477
:10054000406003020624FB7A00793F7D0AFC120F0B
:100550001AE4F539F53CD20BC20AFF22AB23AA24D8
:10056000A925E53B2402FFE4353A8F82F583120783
:1005700069FF700302061B3395E0FEEF253BF53B58
:10058000EE353AF53AE53B2401FFE4353A8F82F542
:1005900083120769FF3395E0FEC3E53E9FEE64805A
:1005A000F8E53D64809840B48E288F29D3E53E95C8
:1005B00029E5286480F8E53D648098400CE4F53D29
:1005C000F53EF53AF53B02046D8E288F29E53E6530
:1005D000297004E53D6528704BAB23AA24A925E5C5
:1005E0003B2401FFE4353A8F82F583120769FF331C
:1005F00095E0FEE53E253BCDE53D353ACD2404CDE5
:100600003400CDC39FFFED9E8F82F583120769F5FD
:10061000276526600302055C0204FFE4F53DF53E14
:10062000F53AF53B7F0022EF14B40A0040030207BD
:100630002D90063F75F003A4C58325F0C583730292
:10064000065D02072D02072D0206600206BF0207A3
:100650001F02072202072502072702072A02108B22
:10066000E539604CD364809481401B7D01E4FF1226
:100670000B1C8F237D017F01120B1C8F24AB24AD3B
:1006800023E4FF120EEC7D01E4FF120B1CC007C037
:10069000067D01E4FF120B1CAD07E4FF120DA875E7
:1006A0002A008F2BD028D0297BFF7A087918806CFC
:1006B0007BFF7A087926AF807528008F29805DE559
:1006C00039604CD364809481401B7D01E4FF120BA0
:1006D0001C8F237D017F01120B1C8F24AB24AD23C3
:1006E0007F01120EEC7D01E4FF120B1CC007C00657
:1006F0007D01E4FF120B1CAD077F01120DA8752AC6
:10070000008F2BD028D0297BFF7A087930800D7B91
:10071000FF7A08793EAF907528008F290200A80261
:10072000111302111E80FE02003E12113322C2D5A7
:1007300030F707B2D563F0FF05F030E70CB2D5F41F
:10074000048463F0FF05F080018430D502F40422B4
:10075000BB010689828A83E0225002E722BBFE02A7
:10076000E32289828A83E49322BB010CE58229F586
:1007700082E5833AF583E0225006E92582F8E622F5
:10078000BBFE06E92582F8E222E58229F582E583AF
:100790003AF583E49322F8BB010DE58229F582E561
:1007A000833AF583E8F0225006E92582C8F622BB99
:1007B000FE05E92582C8F222EF8DF0A4A8F0CF8CC7
:1007C000F0A428CE8DF0A42EFE22D083D082F8E4AF
:1007D000937012740193700DA3A393F8740193F5B1
:1007E000828883E4737402936860EFA3A3A380DF1D
:1007F0008A838982E473BB010689828A83F022504E
:1008000002F722BBFE01F322FAE6FB0808E6F9250F
:10081000F0F618E6CA3AF62250302E2569203D3D02
:100820002025690D0A0050303A2025690A0D0A007A
:1008300050312E2569203D3D2025690D0A0050319B
:100840003A2025690A0D0A004C69676874207365AF
:100850006E736F7220312E30372C20646174653ACC
:100860002025730D0A004E6F76203136203230304D
:100870003700434D44205441424C45204552524F8D
:1008800052210D0A0050495220414C41524D0D0A4F
:10089000005049522051554945540D0A00455645CE
:1008A0004E54204F564552464C4F57210D0A00409A
:1008B000000801424F4F544000080353434F4D403E
:1008C00000080248434F4D400006045030400105E7
:1008D000053140000A0646414445494E4004070799
:1008E0004F555440000908494C4F4F5040000C09E7
:1008F00055415254204F46464006050A4E400000DE
:10090000120FD4121074121107E4FF120F42120FCB
:10091000F5120D611200261200081211291210168C
:10092000C200E4F523752408F525120A7C7528FF1A
:10093000752908752A667BFF7A0879481200A81283
:1009400010EA7BFF7A0879AF7D517C00120C41B32D
:1009500050097BFF7A0879721200A8120FB3300C8D
:1009600013AF491210A17BFF7A0879AFAD4912038A
:10097000A21206277859E6602A120F91EF24FE6032
:100980001604701FC2001210FAB350031211137B29
:10099000FF7A087985800912111E7BFF7A08799108
:1009A0001200A830140BC2147BFF7A08799D120044
:1009B000A81209C2120E28120F6A120E5D1210D967
:1009C0008099A20EB34003020A7B7860E618466065
:1009D00003020A7BF608F6E5094508600BE50915F0
:1009E0000970021508C28722E50B450A600BE50B6A
:1009F000150B7002150AD28722850C08850D098512
:100A00000E0A850F0B300F3BE50F450E6008E50F12
:100A1000150F7002150EC3E50D94F4E50C64809477
:100A2000815008050DE50D7002050CC3E50D94F429
:100A3000E50C648094814043E50F450E703DC2870C
:100A4000D20E22E50D450C6008E50D150D7002155E
:100A50000CC3E50F94F4E50E648094815008050FF3
:100A6000E50F7002050EC3E50F94F4E50E64809463
:100A7000814008E50D450C7002D20E2220004BE5A6
:100A800023700B4384105385EF43F6108009438491
:100A9000085385F743F608E52470094384205385FD
:100AA000DF43F620E525B404065384BF438540E5C3
:100AB000ACA2E59201E523452445254420F5AC2070
:100AC000010312105553ACFE8049E523700B43849B
:100AD000045385FB43F60480094384025385FD4398
:100AE000F602E52470094384205385DF43F620E5B0
:100AF00025B404065384FE438501E5ADA2E59201C9
:100B0000E523452445254420F5AD20010312105569
:100B100053ADFE53F8FB53F7FBD2EA228F258D2607
:100B2000E4F52C7427252CF8E4F6052CE52CB40507
:100B3000F2E4F52CF52DE52CC39405502DAF2512CC
:100B400010367E00E9252DF9EE3AFA120750F52EFF
:100B50006018FF1210C7EF7004052D80D974272587
:100B60002CF8A62E052C052D80CCE5266008C39513
:100B70002C500385262C7B017A00900000E52C6028
:100B80002F2426F8E624D0FFE434FFFEAD03AC02A8
:100B90001207B8EF2582F582EE3583F5837C007D60
:100BA0000AAF03AE021207B8AA06AB07152C80CD18
:100BB000AE83AF8222787FE4F6D8FD758162020BA6
:100BC000FC020900E493A3F8E493A34003F6800138
:100BD000F208DFF48029E493A3F85407240CC8C377
:100BE00033C4540F4420C8834004F456800146F6B1
:100BF000DFE4800B0102040810204080900003E431
:100C00007E019360BCA3FF543F30E509541FFEE40E
:100C100093A360010ECF54C025E060A840B8E493D0
:100C2000A3FAE493A3F8E493A3C8C582C8CAC58312
:100C3000CAF0A3C8C582C8CAC583CADFE9DEE78097
:100C4000BE8B238A2489258C268D27E4FFAB23AA1B
:100C500024A925EFFD3395E08D82F58312076964A1
:100C6000406002C322EFFD3395E08D82F583A3AB94
:100C700023AA24A9251207697011EF3395E08D820C
:100C8000F583A3A31207697002D322EFFD3395E029
:100C9000FCD3ED9527E5266480F8EC64809840014C
:100CA00022EFFD3395E08D82F583A3A3AB23AA2425
:100CB000A9251207692FFF8094AE057401A80608C4
:100CC0008002C333D8FCFEEB14601514602214605C
:100CD0002F2403703FEF14600504703880098019D9
:100CE000EF14600A04702DEEF45284528522801EA7
:100CF000EF14600504701D800EEEF45291529222A2
:100D0000EF14600A04700DEE4284EE428522EE423A
:100D100091EE429222C0E0C0F0C0D075D010309861
:100D200021C298E54AC394055016E54C75F0058438
:100D300085F04C745A254CF8A699054C054A80025A
:100D4000D20DE5BA30E30353BAF7E5BA30E2035304
:100D5000BAFBE5BA30E10353BAFDD0D0D0F0D0E011
:100D6000325387BF75985053877F75BAA143A2400D
:100D7000E4F5BD75BEF075BF0375BD035391FE4329
:100D800092015391FD5392FD53B8EF43B710D2AC8B
:100D9000C20CF54CF54BF54AF5497F05785AE4F657
:100DA00008DFFCC20DD29922EF14602104703B745D
:100DB000017E00A805088005C333CE33CED8F9FFE5
:100DC000AC80ECFBEF5B7F0060027F0122AF05741B
:100DD000017E00A807088005C333CE33CED8F9FFC3
:100DE000AD90EF5D7F0060027F0122EF640A701C0E
:100DF000309811E599B4130CC2983098FDE599B478
:100E000011F6C2983099FDC29975990D309811E587
:100E100099B4130CC2983098FDE599B411F6C298B4
:100E20003099FDC2998F99227862E618467023A204
:100E300097301301B35025A297921320970D786134
:100E400076030876E8C2967F018004D2967F02027C
:100E50000F42209707786176030876E822E5ACC355
:100E600013139200A200301001B35009A200921097
:100E70007F03120F42E5ADC313139201A20130119B
:100E800001B35009A20192117F03120F4222C0E068
:100E9000C0D075D018758C71758A99E4FFEF25E084
:100EA0002460F9E71947600DEF25E0245FF808E6B4
:100EB00016187001160FBF02E4D0D0D0E03278FFD0
:100EC0007696121F0022C0A8C2AF120EBE74027D19
:100ED000017F03121F00D0A822C0A8C2AF120EBE0D
:100EE00074027D1F7F02121F00D0A8227401A80582
:100EF000088002C333D8FCFEEBA805088002C33388
:100F0000D8FCFDEF14600B04700FEEF455804DF526
:100F10008022EEF455904DF590228B2A8A2B892C55
:100F20008C2D8D2EE4FFEFC3952EE4952D5012AB42
:100F30002AAA2BA92C8F82758300E41207960F80B2
:100F4000E522C37859E664809485501B18E6FE7547
:100F5000F00512072EAEF07858A606E62453F8A640
:100F600007785806080622D21422E54A6018D20CE7
:100F7000E54B75F0058485F04B745A254BF8E6F582
:100F800049054B154A22300C07C20CE4F54BF54CD1
:100F9000227859E6601C7852E6FF75F00512072E9C
:100FA000AFF07852A607E62453F8E6FF78520678A9
:100FB000591622A292B3501B7F64E4FEEF60091F12
:100FC000A292B350F70E80F4D3EE648094DA40031B
:100FD00012108B227B027D027F01120CB9755075B5
:100FE000755130120FB3E551155170021550E5518E
:100FF000455070EF227B037D07E4FF120CB9E4F546
:101000000CF50DF508F509750E01750FF4750A015B
:10101000750BF40211135389F0438901538FFE7548
:101020008C71758A9953B8FD53B7FD43B80243B725
:1010300002D2A9D28C227E01E4FDED6F600FED6F2C
:10104000600B743F2EF8E670010D0E80ED743F2E9C
:10105000F9E4FAFB22C28E53890F438910538FEFB4
:10106000758DFF758BD0C2ABC28FD28E308FFDC213
:101070008EC28F2275C1C2A2AF9200C2AF75A7E522
:1010800075C2A575C35AA20092AF22C2AF120EC696
:10109000120ED9120D617BFF7A0079411200A880EF
:1010A000FEE54E454F454D6009854F82854E8302D2
:1010B00007F47F0022EFC39461400BEFD3947A5082
:1010C00005EF54DFFF2222EFC394304009EFD394A1
:1010D0003950037F01227F0022A2AF9200C2AF7578
:1010E000C2A575C35AA20092AF22E4F53AF53BF5CA
:1010F0003DF53EC20BC20AD20922200004E5AC80B5
:1011000002E5ADC3131322E47859F618F67852F6C7
:10111000C21422E4785FF608F6D20FC20E22E478F9
:101120005FF608F6C20FC20E22754DFF754E0D75A3
:061130004FEB22D2AC22BD
:00000001FF
